{
  "address": "0x7A1825E3D00Cdf8F12Df7c52b62DEE64B0dBE108",
  "abi": [
    {
      "inputs": [
        {
          "internalType": "address payable",
          "name": "_gateway",
          "type": "address"
        }
      ],
      "stateMutability": "payable",
      "type": "constructor"
    },
    {
      "anonymous": false,
      "inputs": [
        {
          "indexed": false,
          "internalType": "uint256",
          "name": "requestId",
          "type": "uint256"
        }
      ],
      "name": "HackingAttemptError",
      "type": "event"
    },
    {
      "anonymous": false,
      "inputs": [
        {
          "components": [
            {
              "internalType": "uint256",
              "name": "paymentRef",
              "type": "uint256"
            },
            {
              "internalType": "uint256",
              "name": "amount",
              "type": "uint256"
            },
            {
              "internalType": "bytes32",
              "name": "sig",
              "type": "bytes32"
            }
          ],
          "indexed": false,
          "internalType": "struct NunyaBusiness.Receipt",
          "name": "",
          "type": "tuple"
        }
      ],
      "name": "ReceiptEmitted",
      "type": "event"
    },
    {
      "anonymous": false,
      "inputs": [
        {
          "indexed": false,
          "internalType": "uint256",
          "name": "requestId",
          "type": "uint256"
        }
      ],
      "name": "RequestSuccess",
      "type": "event"
    },
    {
      "anonymous": false,
      "inputs": [
        {
          "indexed": false,
          "internalType": "uint256",
          "name": "requestId",
          "type": "uint256"
        },
        {
          "indexed": false,
          "internalType": "string",
          "name": "message",
          "type": "string"
        }
      ],
      "name": "SecretNetworkError",
      "type": "event"
    },
    {
      "inputs": [
        {
          "internalType": "uint256",
          "name": "_requestId",
          "type": "uint256"
        },
        {
          "internalType": "string",
          "name": "_message",
          "type": "string"
        }
      ],
      "name": "emitSecretNetworkError",
      "outputs": [],
      "stateMutability": "nonpayable",
      "type": "function"
    },
    {
      "inputs": [
        {
          "internalType": "uint256",
          "name": "_secret",
          "type": "uint256"
        },
        {
          "internalType": "string",
          "name": "_ref",
          "type": "string"
        }
      ],
      "name": "linkPaymentRef",
      "outputs": [
        {
          "internalType": "uint256",
          "name": "",
          "type": "uint256"
        }
      ],
      "stateMutability": "payable",
      "type": "function"
    },
    {
      "inputs": [
        {
          "internalType": "uint256",
          "name": "_requestId",
          "type": "uint256"
        },
        {
          "internalType": "bool",
          "name": "_success",
          "type": "bool"
        }
      ],
      "name": "linkPaymentRefCallback",
      "outputs": [],
      "stateMutability": "nonpayable",
      "type": "function"
    },
    {
      "inputs": [
        {
          "internalType": "uint256",
          "name": "_secret",
          "type": "uint256"
        }
      ],
      "name": "newSecretUser",
      "outputs": [
        {
          "internalType": "uint256",
          "name": "",
          "type": "uint256"
        }
      ],
      "stateMutability": "payable",
      "type": "function"
    },
    {
      "inputs": [
        {
          "internalType": "uint256",
          "name": "_requestId",
          "type": "uint256"
        },
        {
          "internalType": "bool",
          "name": "_success",
          "type": "bool"
        }
      ],
      "name": "newSecretUserCallback",
      "outputs": [],
      "stateMutability": "nonpayable",
      "type": "function"
    },
    {
      "inputs": [
        {
          "internalType": "string",
          "name": "_ref",
          "type": "string"
        },
        {
          "internalType": "uint256",
          "name": "_amount",
          "type": "uint256"
        },
        {
          "internalType": "uint256",
          "name": "_userPubkey",
          "type": "uint256"
        }
      ],
      "name": "pay",
      "outputs": [
        {
          "internalType": "uint256",
          "name": "",
          "type": "uint256"
        }
      ],
      "stateMutability": "payable",
      "type": "function"
    },
    {
      "inputs": [
        {
          "internalType": "string",
          "name": "_ref",
          "type": "string"
        },
        {
          "internalType": "uint256",
          "name": "_amount",
          "type": "uint256"
        }
      ],
      "name": "pay",
      "outputs": [
        {
          "internalType": "uint256",
          "name": "",
          "type": "uint256"
        }
      ],
      "stateMutability": "payable",
      "type": "function"
    },
    {
      "inputs": [
        {
          "internalType": "uint256",
          "name": "_requestId",
          "type": "uint256"
        },
        {
          "internalType": "bool",
          "name": "_success",
          "type": "bool"
        },
        {
          "components": [
            {
              "internalType": "uint256",
              "name": "paymentRef",
              "type": "uint256"
            },
            {
              "internalType": "uint256",
              "name": "amount",
              "type": "uint256"
            },
            {
              "internalType": "bytes32",
              "name": "sig",
              "type": "bytes32"
            }
          ],
          "internalType": "struct NunyaBusiness.Receipt",
          "name": "_receipt",
          "type": "tuple"
        }
      ],
      "name": "payCallback",
      "outputs": [],
      "stateMutability": "payable",
      "type": "function"
    },
    {
      "inputs": [
        {
          "internalType": "uint256",
          "name": "_requestId",
          "type": "uint256"
        },
        {
          "internalType": "bool",
          "name": "_success",
          "type": "bool"
        }
      ],
      "name": "payCallback",
      "outputs": [],
      "stateMutability": "payable",
      "type": "function"
    },
    {
      "inputs": [
        {
          "internalType": "uint256",
          "name": "_requestId",
          "type": "uint256"
        },
        {
          "internalType": "uint256",
          "name": "_key",
          "type": "uint256"
        }
      ],
      "name": "setSecretContractPubkeyCallback",
      "outputs": [],
      "stateMutability": "nonpayable",
      "type": "function"
    },
    {
      "inputs": [
        {
          "internalType": "string",
          "name": "_secret",
          "type": "string"
        },
        {
          "internalType": "uint256",
          "name": "_amount",
          "type": "uint256"
        },
        {
          "internalType": "address",
          "name": "_withdrawalAddress",
          "type": "address"
        }
      ],
      "name": "withdrawTo",
      "outputs": [
        {
          "internalType": "uint256",
          "name": "",
          "type": "uint256"
        }
      ],
      "stateMutability": "payable",
      "type": "function"
    },
    {
      "inputs": [
        {
          "internalType": "uint256",
          "name": "_requestId",
          "type": "uint256"
        },
        {
          "internalType": "bool",
          "name": "_success",
          "type": "bool"
        },
        {
          "internalType": "uint256",
          "name": "_amount",
          "type": "uint256"
        },
        {
          "internalType": "address payable",
          "name": "_withdrawalAddress",
          "type": "address"
        }
      ],
      "name": "withdrawToCallback",
      "outputs": [],
      "stateMutability": "nonpayable",
      "type": "function"
    },
    {
      "stateMutability": "payable",
      "type": "receive"
    }
  ],
  "transactionHash": "0xadedff6b4de3b1c629e99090e5a6e29180c25abc73f987d7b7d35cdcf8e28d4d",
  "args": [
    "0xD6c6E4849B7b059986693A7756f1DB518B669911"
  ],
  "numDeployments": 1,
  "solcInputHash": "ceadd614b9c1c2de184d4db34c9b433a",
  "bytecode": "0x60806040526040516113ec3803806113ec8339810160408190526100229161004b565b600080546001600160a01b0319166001600160a01b03929092169190911790553360025561007b565b60006020828403121561005d57600080fd5b81516001600160a01b038116811461007457600080fd5b9392505050565b6113628061008a6000396000f3fe6080604052600436106100ab5760003560e01c80636d6d619a116100645780636d6d619a14610164578063901c59531461017757806391b661711461018a578063b31acf5e146101aa578063c6da836a146101bd578063dde320f4146101d057600080fd5b8063046e1ff7146100b7578063059fb947146100d957806316de0130146100fe57806320192a771461011e5780636116389d146101315780636b0618a51461014457600080fd5b366100b257005b600080fd5b3480156100c357600080fd5b506100d76100d2366004610d6b565b6101f0565b005b6100ec6100e7366004610e6f565b610276565b60405190815260200160405180910390f35b34801561010a57600080fd5b506100d7610119366004610ed0565b61031c565b6100ec61012c366004610efc565b61042f565b6100d761013f366004610f4d565b610523565b34801561015057600080fd5b506100d761015f366004610fad565b610658565b6100ec610172366004610ff5565b610805565b6100ec61018536600461100e565b6108a1565b34801561019657600080fd5b506100d76101a536600461105a565b610992565b6100d76101b8366004610ed0565b610a65565b6100ec6101cb36600461107c565b610b08565b3480156101dc57600080fd5b506100d76101eb366004610ed0565b610bfe565b6000546001600160a01b03166102215760405162461bcd60e51b8152600401610218906110d0565b60405180910390fd5b6000546001600160a01b0316331461024b5760405162461bcd60e51b8152600401610218906110f8565b60008051602061130d833981519152828260405161026a929190611155565b60405180910390a15050565b600061028134610cd8565b5060015460405163059fb94760e01b81526000916001600160a01b03169063059fb947906102b7908890889088906004016111d4565b6020604051808303816000875af11580156102d6573d6000803e3d6000fd5b505050506040513d601f19601f820116820180604052508101906102fa91906111f7565b6000818152600360205260409020805460ff1916600217905595945050505050565b6000546001600160a01b03166103445760405162461bcd60e51b8152600401610218906110d0565b6000546001600160a01b0316331461036e5760405162461bcd60e51b8152600401610218906110f8565b600260008381526003602052604090205460ff16600581111561039357610393611210565b1461039d57600080fd5b806103ff5760008051602061130d833981519152826040516103f6918152604060208201819052601d908201527f4572726f7220706179696e67202d206e6f207573657220666f756e643f000000606082015260800190565b60405180910390a15b6040518281527fb4e9188122e9cfdce1163bba2bb7941a8016c9d5d2ff913d9e143a190b568a159060200161026a565b60003483101561046c5760405162461bcd60e51b81526020600482015260086024820152674e6175676874792160c01b6044820152606401610218565b6000610476610d19565b6001549091506000906001600160a01b0316631bc6dc7488886104998634611226565b886040518563ffffffff1660e01b81526004016104b9949392919061124d565b6020604051808303816000875af11580156104d8573d6000803e3d6000fd5b505050506040513d601f19601f820116820180604052508101906104fc91906111f7565b6000818152600360208190526040909120805460ff19169091179055979650505050505050565b6000546001600160a01b031661054b5760405162461bcd60e51b8152600401610218906110d0565b6000546001600160a01b031633146105755760405162461bcd60e51b8152600401610218906110f8565b600360008481526003602052604090205460ff16600581111561059a5761059a611210565b146105a457600080fd5b816105cf5760008051602061130d833981519152836040516105c69190611274565b60405180910390a15b60408101351561062057604080518235815260208084013590820152828201358183015290517f68ede5b41e63a1e6e35b1fe9c8906e7feca41aa9bccfcc7d32fdf4288cf284659181900360600190a15b6040518381527fb4e9188122e9cfdce1163bba2bb7941a8016c9d5d2ff913d9e143a190b568a159060200160405180910390a1505050565b6000546001600160a01b03166106805760405162461bcd60e51b8152600401610218906110d0565b6000546001600160a01b031633146106aa5760405162461bcd60e51b8152600401610218906110f8565b600460008581526003602052604090205460ff1660058111156106cf576106cf611210565b146106d957600080fd5b826107455760008051602061130d8339815191528460405161073c9181526040602082018190526021908201527f4572726f72207769746864726177696e67202d206f7574206f662066756e64736060820152603f60f81b608082015260a00190565b60405180910390a15b600082116107955760405162461bcd60e51b815260206004820152601b60248201527f4163636f756e74206e6f7420666f756e64206f7220656d7074792e00000000006044820152606401610218565b6040516001600160a01b0382169083156108fc029084906000818181858888f193505050501580156107cb573d6000803e3d6000fd5b506040518481527fb4e9188122e9cfdce1163bba2bb7941a8016c9d5d2ff913d9e143a190b568a159060200160405180910390a150505050565b600061081034610cd8565b506001546040516336b6b0cd60e11b8152600481018490526000916001600160a01b031690636d6d619a906024016020604051808303816000875af115801561085d573d6000803e3d6000fd5b505050506040513d601f19601f8201168201806040525081019061088191906111f7565b6000818152600360205260409020805460ff191660011790559392505050565b6000348210156108de5760405162461bcd60e51b81526020600482015260086024820152674e6175676874792160c01b6044820152606401610218565b60006108e8610d19565b6001549091506000906001600160a01b031663901c5953878761090b8634611226565b6040518463ffffffff1660e01b8152600401610929939291906112bc565b6020604051808303816000875af1158015610948573d6000803e3d6000fd5b505050506040513d601f19601f8201168201806040525081019061096c91906111f7565b6000818152600360208190526040909120805460ff191690911790559695505050505050565b6000546001600160a01b03166109ba5760405162461bcd60e51b8152600401610218906110d0565b6000546001600160a01b031633146109e45760405162461bcd60e51b8152600401610218906110f8565b600160a01b60025410610a5f5760405162461bcd60e51b815260206004820152603760248201527f4f6e6c792074686520636f6e747261637420636f6e7374727563746f7220636160448201527f6e207472696767657220746869732066756e6374696f6e0000000000000000006064820152608401610218565b60025550565b6000546001600160a01b0316610a8d5760405162461bcd60e51b8152600401610218906110d0565b6000546001600160a01b03163314610ab75760405162461bcd60e51b8152600401610218906110f8565b600360008381526003602052604090205460ff166005811115610adc57610adc611210565b14610ae657600080fd5b806103ff5760008051602061130d833981519152826040516103f69190611274565b6000808311610b595760405162461bcd60e51b815260206004820152601b60248201527f4163636f756e74206e6f7420666f756e64206f7220656d7074792e00000000006044820152606401610218565b610b6234610cd8565b50600154604051636ea4311760e11b81526000916001600160a01b03169063dd48622e90610b98908990899088906004016112e0565b6020604051808303816000875af1158015610bb7573d6000803e3d6000fd5b505050506040513d601f19601f82011682018060405250810190610bdb91906111f7565b6000818152600360205260409020805460ff191660041790559695505050505050565b6000546001600160a01b0316610c265760405162461bcd60e51b8152600401610218906110d0565b6000546001600160a01b03163314610c505760405162461bcd60e51b8152600401610218906110f8565b600160008381526003602052604090205460ff166005811115610c7557610c75611210565b14610c7f57600080fd5b806103ff5760008051602061130d833981519152826040516103f6918152604060208201819052601e908201527f4572726f7220706179696e67202d206475706c696361746520757365723f0000606082015260800190565b600080546040516001600160a01b039091169083156108fc0290849084818181858888f19350505050158015610d12573d6000803e3d6000fd5b5090919050565b600080546040516001916001600160a01b0316908390839082818181858883f19350505050158015610d4f573d6000803e3d6000fd5b50919050565b634e487b7160e01b600052604160045260246000fd5b60008060408385031215610d7e57600080fd5b82359150602083013567ffffffffffffffff80821115610d9d57600080fd5b818501915085601f830112610db157600080fd5b813581811115610dc357610dc3610d55565b604051601f8201601f19908116603f01168101908382118183101715610deb57610deb610d55565b81604052828152886020848701011115610e0457600080fd5b8260208601602083013760006020848301015280955050505050509250929050565b60008083601f840112610e3857600080fd5b50813567ffffffffffffffff811115610e5057600080fd5b602083019150836020828501011115610e6857600080fd5b9250929050565b600080600060408486031215610e8457600080fd5b83359250602084013567ffffffffffffffff811115610ea257600080fd5b610eae86828701610e26565b9497909650939450505050565b80358015158114610ecb57600080fd5b919050565b60008060408385031215610ee357600080fd5b82359150610ef360208401610ebb565b90509250929050565b60008060008060608587031215610f1257600080fd5b843567ffffffffffffffff811115610f2957600080fd5b610f3587828801610e26565b90989097506020870135966040013595509350505050565b600080600083850360a0811215610f6357600080fd5b84359350610f7360208601610ebb565b92506060603f1982011215610f8757600080fd5b506040840190509250925092565b6001600160a01b0381168114610faa57600080fd5b50565b60008060008060808587031215610fc357600080fd5b84359350610fd360208601610ebb565b9250604085013591506060850135610fea81610f95565b939692955090935050565b60006020828403121561100757600080fd5b5035919050565b60008060006040848603121561102357600080fd5b833567ffffffffffffffff81111561103a57600080fd5b61104686828701610e26565b909790965060209590950135949350505050565b6000806040838503121561106d57600080fd5b50508035926020909101359150565b6000806000806060858703121561109257600080fd5b843567ffffffffffffffff8111156110a957600080fd5b6110b587828801610e26565b909550935050602085013591506040850135610fea81610f95565b6020808252600e908201526d139bc819d85d195dd85e481cd95d60921b604082015260600190565b6020808252603e908201527f4f6e6c7920676174657761792063616e2063616c6c2063616c6c6261636b732e60408201527f205573652074686520757365722066756e6374696f6e20696e73746561640000606082015260800190565b82815260006020604081840152835180604085015260005b818110156111895785810183015185820160600152820161116d565b506000606082860101526060601f19601f830116850101925050509392505050565b81835281816020850137506000828201602090810191909152601f909101601f19169091010190565b8381526040602082015260006111ee6040830184866111ab565b95945050505050565b60006020828403121561120957600080fd5b5051919050565b634e487b7160e01b600052602160045260246000fd5b8181038181111561124757634e487b7160e01b600052601160045260246000fd5b92915050565b6060815260006112616060830186886111ab565b6020830194909452506040015292915050565b9081526040602082018190526021908201527f4572726f7220706179696e67202d2077726f6e67207061796d656e74207265666060820152603f60f81b608082015260a00190565b6040815260006112d06040830185876111ab565b9050826020830152949350505050565b6040815260006112f46040830185876111ab565b905060018060a01b038316602083015294935050505056fe98cfb47078673432af5d1eba2696f0433e17f85604c24337b5d27c3b754e45c8a2646970667358221220b3dceb00ae50d467598439c6d2aef48ac67f24e453353f3b29778a589e6f6a7564736f6c63430008110033",
  "devdoc": {
    "kind": "dev",
    "methods": {},
    "version": 1
  },
  "userdoc": {
    "kind": "user",
    "methods": {},
    "version": 1
  },
  "storageLayout": {
    "storage": [
      {
        "astId": 70,
        "contract": "contracts/NunyaBusiness.sol:NunyaBusiness",
        "label": "gateway",
        "offset": 0,
        "slot": "0",
        "type": "t_address_payable"
      },
      {
        "astId": 73,
        "contract": "contracts/NunyaBusiness.sol:NunyaBusiness",
        "label": "secretContract",
        "offset": 0,
        "slot": "1",
        "type": "t_contract(SecretContract)53"
      },
      {
        "astId": 75,
        "contract": "contracts/NunyaBusiness.sol:NunyaBusiness",
        "label": "secretContractPubkey",
        "offset": 0,
        "slot": "2",
        "type": "t_uint256"
      },
      {
        "astId": 80,
        "contract": "contracts/NunyaBusiness.sol:NunyaBusiness",
        "label": "expectedResult",
        "offset": 0,
        "slot": "3",
        "type": "t_mapping(t_uint256,t_enum(FunctionCallType)61)"
      }
    ],
    "types": {
      "t_address_payable": {
        "encoding": "inplace",
        "label": "address payable",
        "numberOfBytes": "20"
      },
      "t_contract(SecretContract)53": {
        "encoding": "inplace",
        "label": "contract SecretContract",
        "numberOfBytes": "20"
      },
      "t_enum(FunctionCallType)61": {
        "encoding": "inplace",
        "label": "enum NunyaBusiness.FunctionCallType",
        "numberOfBytes": "1"
      },
      "t_mapping(t_uint256,t_enum(FunctionCallType)61)": {
        "encoding": "mapping",
        "key": "t_uint256",
        "label": "mapping(uint256 => enum NunyaBusiness.FunctionCallType)",
        "numberOfBytes": "32",
        "value": "t_enum(FunctionCallType)61"
      },
      "t_uint256": {
        "encoding": "inplace",
        "label": "uint256",
        "numberOfBytes": "32"
      }
    }
  }
}