{
  "address": "0xD6c6E4849B7b059986693A7756f1DB518B669911",
  "abi": [
    {
      "inputs": [
        {
          "internalType": "uint256",
          "name": "secret",
          "type": "uint256"
        },
        {
          "internalType": "string",
          "name": "ref",
          "type": "string"
        }
      ],
      "name": "linkPaymentRef",
      "outputs": [
        {
          "internalType": "uint256",
          "name": "",
          "type": "uint256"
        }
      ],
      "stateMutability": "nonpayable",
      "type": "function"
    },
    {
      "inputs": [
        {
          "internalType": "uint256",
          "name": "secret",
          "type": "uint256"
        }
      ],
      "name": "newSecretUser",
      "outputs": [
        {
          "internalType": "uint256",
          "name": "",
          "type": "uint256"
        }
      ],
      "stateMutability": "nonpayable",
      "type": "function"
    },
    {
      "inputs": [
        {
          "internalType": "string",
          "name": "ref",
          "type": "string"
        },
        {
          "internalType": "uint256",
          "name": "amount",
          "type": "uint256"
        }
      ],
      "name": "pay",
      "outputs": [
        {
          "internalType": "uint256",
          "name": "",
          "type": "uint256"
        }
      ],
      "stateMutability": "nonpayable",
      "type": "function"
    },
    {
      "inputs": [
        {
          "internalType": "string",
          "name": "ref",
          "type": "string"
        },
        {
          "internalType": "uint256",
          "name": "amount",
          "type": "uint256"
        },
        {
          "internalType": "uint256",
          "name": "userPubkey",
          "type": "uint256"
        }
      ],
      "name": "payWithReceipt",
      "outputs": [
        {
          "internalType": "uint256",
          "name": "",
          "type": "uint256"
        }
      ],
      "stateMutability": "nonpayable",
      "type": "function"
    },
    {
      "inputs": [],
      "name": "retrievePubkey",
      "outputs": [
        {
          "internalType": "uint256",
          "name": "",
          "type": "uint256"
        }
      ],
      "stateMutability": "nonpayable",
      "type": "function"
    },
    {
      "inputs": [
        {
          "internalType": "string",
          "name": "secret",
          "type": "string"
        },
        {
          "internalType": "address",
          "name": "withdrawalAddress",
          "type": "address"
        }
      ],
      "name": "withdraw",
      "outputs": [
        {
          "internalType": "uint256",
          "name": "",
          "type": "uint256"
        }
      ],
      "stateMutability": "nonpayable",
      "type": "function"
    }
  ],
  "transactionHash": "0x0621ff36b8739c9e7c709a87137a82b3c54b2c530b0d4937aac333170602bb5b",
  "args": [],
  "numDeployments": 1,
  "solcInputHash": "1573356e497d9f5ca8302431973e7672",
  "bytecode": "0x608060405234801561001057600080fd5b506102d5806100206000396000f3fe608060405234801561001057600080fd5b50600436106100625760003560e01c8063059fb947146100675780631bc6dc7414610090578063525cc628146100a85780636d6d619a146100af578063901c5953146100c3578063dd48622e146100da575b600080fd5b61007e61007536600461013a565b60059392505050565b60405190815260200160405180910390f35b61007e61009e366004610186565b6003949350505050565b600161007e565b61007e6100bd3660046101d7565b50600690565b61007e6100d13660046101f0565b60049392505050565b61007e6100e836600461023c565b60029392505050565b60008083601f84011261010357600080fd5b50813567ffffffffffffffff81111561011b57600080fd5b60208301915083602082850101111561013357600080fd5b9250929050565b60008060006040848603121561014f57600080fd5b83359250602084013567ffffffffffffffff81111561016d57600080fd5b610179868287016100f1565b9497909650939450505050565b6000806000806060858703121561019c57600080fd5b843567ffffffffffffffff8111156101b357600080fd5b6101bf878288016100f1565b90989097506020870135966040013595509350505050565b6000602082840312156101e957600080fd5b5035919050565b60008060006040848603121561020557600080fd5b833567ffffffffffffffff81111561021c57600080fd5b610228868287016100f1565b909790965060209590950135949350505050565b60008060006040848603121561025157600080fd5b833567ffffffffffffffff81111561026857600080fd5b610274868287016100f1565b90945092505060208401356001600160a01b038116811461029457600080fd5b80915050925092509256fea264697066735822122031b9ecc2def63a3320085ececdb9015d031eb1050c1bdb8cfccfc679cf116d4964736f6c63430008110033",
  "devdoc": {
    "kind": "dev",
    "methods": {},
    "version": 1
  },
  "userdoc": {
    "kind": "user",
    "methods": {},
    "version": 1
  },
  "storageLayout": {
    "storage": [],
    "types": null
  }
}